{
  "_format": "hh-sol-artifact-1",
  "contractName": "EcoStayTwo",
  "sourceName": "contracts/EcoStayTwo.sol",
  "abi": [
    {
      "inputs": [],
      "stateMutability": "nonpayable",
      "type": "constructor"
    },
    {
      "anonymous": false,
      "inputs": [
        {
          "indexed": true,
          "internalType": "address",
          "name": "user",
          "type": "address"
        },
        {
          "indexed": false,
          "internalType": "uint256",
          "name": "gctAmount",
          "type": "uint256"
        },
        {
          "indexed": false,
          "internalType": "string",
          "name": "reason",
          "type": "string"
        },
        {
          "indexed": false,
          "internalType": "uint256",
          "name": "timestamp",
          "type": "uint256"
        }
      ],
      "name": "GCTExchanged",
      "type": "event"
    },
    {
      "anonymous": false,
      "inputs": [
        {
          "indexed": true,
          "internalType": "address",
          "name": "user",
          "type": "address"
        },
        {
          "indexed": false,
          "internalType": "uint256",
          "name": "gctAmount",
          "type": "uint256"
        },
        {
          "indexed": false,
          "internalType": "uint256",
          "name": "timestamp",
          "type": "uint256"
        }
      ],
      "name": "RewardDistributed",
      "type": "event"
    },
    {
      "anonymous": false,
      "inputs": [
        {
          "indexed": true,
          "internalType": "address",
          "name": "user",
          "type": "address"
        },
        {
          "indexed": false,
          "internalType": "uint256",
          "name": "amount",
          "type": "uint256"
        },
        {
          "indexed": false,
          "internalType": "string",
          "name": "token",
          "type": "string"
        },
        {
          "indexed": false,
          "internalType": "uint256",
          "name": "timestamp",
          "type": "uint256"
        }
      ],
      "name": "TransactionRecorded",
      "type": "event"
    },
    {
      "anonymous": false,
      "inputs": [
        {
          "indexed": true,
          "internalType": "address",
          "name": "user",
          "type": "address"
        },
        {
          "indexed": false,
          "internalType": "uint256",
          "name": "voteCount",
          "type": "uint256"
        }
      ],
      "name": "Voted",
      "type": "event"
    },
    {
      "inputs": [
        {
          "internalType": "address",
          "name": "_voter",
          "type": "address"
        }
      ],
      "name": "addVoter",
      "outputs": [],
      "stateMutability": "nonpayable",
      "type": "function"
    },
    {
      "inputs": [
        {
          "internalType": "address",
          "name": "_user",
          "type": "address"
        }
      ],
      "name": "auditUser",
      "outputs": [
        {
          "internalType": "uint256",
          "name": "ewcBalance",
          "type": "uint256"
        },
        {
          "internalType": "uint256",
          "name": "gctBalance",
          "type": "uint256"
        }
      ],
      "stateMutability": "view",
      "type": "function"
    },
    {
      "inputs": [
        {
          "internalType": "address",
          "name": "_user",
          "type": "address"
        },
        {
          "internalType": "uint256",
          "name": "_gctAmount",
          "type": "uint256"
        }
      ],
      "name": "distributeReward",
      "outputs": [],
      "stateMutability": "nonpayable",
      "type": "function"
    },
    {
      "inputs": [
        {
          "internalType": "address",
          "name": "",
          "type": "address"
        }
      ],
      "name": "ewcBalances",
      "outputs": [
        {
          "internalType": "uint256",
          "name": "",
          "type": "uint256"
        }
      ],
      "stateMutability": "view",
      "type": "function"
    },
    {
      "inputs": [
        {
          "internalType": "address",
          "name": "_user",
          "type": "address"
        },
        {
          "internalType": "uint256",
          "name": "_gctAmount",
          "type": "uint256"
        },
        {
          "internalType": "string",
          "name": "_reason",
          "type": "string"
        }
      ],
      "name": "exchangeGCT",
      "outputs": [],
      "stateMutability": "nonpayable",
      "type": "function"
    },
    {
      "inputs": [
        {
          "internalType": "uint256",
          "name": "",
          "type": "uint256"
        }
      ],
      "name": "exchanges",
      "outputs": [
        {
          "internalType": "address",
          "name": "user",
          "type": "address"
        },
        {
          "internalType": "uint256",
          "name": "gctAmount",
          "type": "uint256"
        },
        {
          "internalType": "string",
          "name": "reason",
          "type": "string"
        },
        {
          "internalType": "uint256",
          "name": "timestamp",
          "type": "uint256"
        }
      ],
      "stateMutability": "view",
      "type": "function"
    },
    {
      "inputs": [
        {
          "internalType": "address",
          "name": "",
          "type": "address"
        }
      ],
      "name": "gctBalances",
      "outputs": [
        {
          "internalType": "uint256",
          "name": "",
          "type": "uint256"
        }
      ],
      "stateMutability": "view",
      "type": "function"
    },
    {
      "inputs": [
        {
          "internalType": "address",
          "name": "_user",
          "type": "address"
        }
      ],
      "name": "getExchangeByUser",
      "outputs": [
        {
          "components": [
            {
              "internalType": "address",
              "name": "user",
              "type": "address"
            },
            {
              "internalType": "uint256",
              "name": "gctAmount",
              "type": "uint256"
            },
            {
              "internalType": "string",
              "name": "reason",
              "type": "string"
            },
            {
              "internalType": "uint256",
              "name": "timestamp",
              "type": "uint256"
            }
          ],
          "internalType": "struct EcoStayTwo.ExchangeRecord[]",
          "name": "",
          "type": "tuple[]"
        }
      ],
      "stateMutability": "view",
      "type": "function"
    },
    {
      "inputs": [],
      "name": "getExchangeRecords",
      "outputs": [
        {
          "components": [
            {
              "internalType": "address",
              "name": "user",
              "type": "address"
            },
            {
              "internalType": "uint256",
              "name": "gctAmount",
              "type": "uint256"
            },
            {
              "internalType": "string",
              "name": "reason",
              "type": "string"
            },
            {
              "internalType": "uint256",
              "name": "timestamp",
              "type": "uint256"
            }
          ],
          "internalType": "struct EcoStayTwo.ExchangeRecord[]",
          "name": "",
          "type": "tuple[]"
        }
      ],
      "stateMutability": "view",
      "type": "function"
    },
    {
      "inputs": [
        {
          "internalType": "address",
          "name": "",
          "type": "address"
        }
      ],
      "name": "isVoter",
      "outputs": [
        {
          "internalType": "bool",
          "name": "",
          "type": "bool"
        }
      ],
      "stateMutability": "view",
      "type": "function"
    },
    {
      "inputs": [],
      "name": "owner",
      "outputs": [
        {
          "internalType": "address",
          "name": "",
          "type": "address"
        }
      ],
      "stateMutability": "view",
      "type": "function"
    },
    {
      "inputs": [
        {
          "internalType": "address",
          "name": "_user",
          "type": "address"
        },
        {
          "internalType": "uint256",
          "name": "_amount",
          "type": "uint256"
        },
        {
          "internalType": "string",
          "name": "_token",
          "type": "string"
        }
      ],
      "name": "recordTransaction",
      "outputs": [],
      "stateMutability": "nonpayable",
      "type": "function"
    },
    {
      "inputs": [
        {
          "internalType": "address",
          "name": "_voter",
          "type": "address"
        }
      ],
      "name": "removeVoter",
      "outputs": [],
      "stateMutability": "nonpayable",
      "type": "function"
    },
    {
      "inputs": [
        {
          "internalType": "uint256",
          "name": "",
          "type": "uint256"
        }
      ],
      "name": "rewards",
      "outputs": [
        {
          "internalType": "address",
          "name": "user",
          "type": "address"
        },
        {
          "internalType": "uint256",
          "name": "gctAmount",
          "type": "uint256"
        },
        {
          "internalType": "uint256",
          "name": "timestamp",
          "type": "uint256"
        }
      ],
      "stateMutability": "view",
      "type": "function"
    },
    {
      "inputs": [
        {
          "internalType": "uint256",
          "name": "",
          "type": "uint256"
        }
      ],
      "name": "transactions",
      "outputs": [
        {
          "internalType": "address",
          "name": "user",
          "type": "address"
        },
        {
          "internalType": "uint256",
          "name": "amount",
          "type": "uint256"
        },
        {
          "internalType": "string",
          "name": "token",
          "type": "string"
        },
        {
          "internalType": "uint256",
          "name": "timestamp",
          "type": "uint256"
        }
      ],
      "stateMutability": "view",
      "type": "function"
    },
    {
      "inputs": [
        {
          "internalType": "uint256",
          "name": "_voteCount",
          "type": "uint256"
        }
      ],
      "name": "vote",
      "outputs": [],
      "stateMutability": "nonpayable",
      "type": "function"
    },
    {
      "inputs": [
        {
          "internalType": "address",
          "name": "",
          "type": "address"
        }
      ],
      "name": "votes",
      "outputs": [
        {
          "internalType": "uint256",
          "name": "",
          "type": "uint256"
        }
      ],
      "stateMutability": "view",
      "type": "function"
    },
    {
      "inputs": [],
      "name": "withdraw",
      "outputs": [],
      "stateMutability": "nonpayable",
      "type": "function"
    },
    {
      "stateMutability": "payable",
      "type": "receive"
    }
  ],
  "bytecode": "0x608060405234801561001057600080fd5b50336000806101000a81548173ffffffffffffffffffffffffffffffffffffffff021916908373ffffffffffffffffffffffffffffffffffffffff16021790555061256b806100606000396000f3fe60806040526004361061010d5760003560e01c806356e8dc6611610095578063a7771ee311610064578063a7771ee31461039f578063d8bff5a5146103dc578063f301af4214610419578063f4ab9adf14610458578063f75641701461048157610114565b806356e8dc66146102ce57806386c1ff681461030b5780638da5cb5b146103345780639ace38c21461035f57610114565b80631ec8bb8c116100dc5780631ec8bb8c146101e8578063251a7269146102115780632839fc291461024e5780632d164c9e1461028e5780633ccfd60b146102b757610114565b80630121b93f1461011957806302bb5cbd14610142578063098cdcea1461017f5780631e942b4b146101bd57610114565b3661011457005b600080fd5b34801561012557600080fd5b50610140600480360381019061013b9190611855565b6104aa565b005b34801561014e57600080fd5b50610169600480360381019061016491906118e0565b6105dd565b604051610176919061191c565b60405180910390f35b34801561018b57600080fd5b506101a660048036038101906101a191906118e0565b6105f5565b6040516101b4929190611937565b60405180910390f35b3480156101c957600080fd5b506101d2610681565b6040516101df9190611b33565b60405180910390f35b3480156101f457600080fd5b5061020f600480360381019061020a9190611b55565b6107dc565b005b34801561021d57600080fd5b50610238600480360381019061023391906118e0565b6109cd565b604051610245919061191c565b60405180910390f35b34801561025a57600080fd5b5061027560048036038101906102709190611855565b6109e5565b6040516102859493929190611bee565b60405180910390f35b34801561029a57600080fd5b506102b560048036038101906102b09190611d6f565b610acd565b005b3480156102c357600080fd5b506102cc610d5f565b005b3480156102da57600080fd5b506102f560048036038101906102f091906118e0565b610e56565b6040516103029190611b33565b60405180910390f35b34801561031757600080fd5b50610332600480360381019061032d91906118e0565b61114e565b005b34801561034057600080fd5b50610349611237565b6040516103569190611dde565b60405180910390f35b34801561036b57600080fd5b5061038660048036038101906103819190611855565b61125b565b6040516103969493929190611bee565b60405180910390f35b3480156103ab57600080fd5b506103c660048036038101906103c191906118e0565b611343565b6040516103d39190611e14565b60405180910390f35b3480156103e857600080fd5b5061040360048036038101906103fe91906118e0565b611363565b604051610410919061191c565b60405180910390f35b34801561042557600080fd5b50610440600480360381019061043b9190611855565b61137b565b60405161044f93929190611e2f565b60405180910390f35b34801561046457600080fd5b5061047f600480360381019061047a91906118e0565b6113d5565b005b34801561048d57600080fd5b506104a860048036038101906104a39190611d6f565b6114be565b005b600660003373ffffffffffffffffffffffffffffffffffffffff1673ffffffffffffffffffffffffffffffffffffffff16815260200190815260200160002060009054906101000a900460ff16610536576040517f08c379a000000000000000000000000000000000000000000000000000000000815260040161052d90611eb2565b60405180910390fd5b80600760003373ffffffffffffffffffffffffffffffffffffffff1673ffffffffffffffffffffffffffffffffffffffff16815260200190815260200160002060008282546105859190611f01565b925050819055503373ffffffffffffffffffffffffffffffffffffffff167f4d99b957a2bc29a30ebd96a7be8e68fe50a3c701db28a91436490b7d53870ca4826040516105d2919061191c565b60405180910390a250565b60026020528060005260406000206000915090505481565b600080600160008473ffffffffffffffffffffffffffffffffffffffff1673ffffffffffffffffffffffffffffffffffffffff16815260200190815260200160002054600260008573ffffffffffffffffffffffffffffffffffffffff1673ffffffffffffffffffffffffffffffffffffffff1681526020019081526020016000205491509150915091565b60606005805480602002602001604051908101604052809291908181526020016000905b828210156107d357838290600052602060002090600402016040518060800160405290816000820160009054906101000a900473ffffffffffffffffffffffffffffffffffffffff1673ffffffffffffffffffffffffffffffffffffffff1673ffffffffffffffffffffffffffffffffffffffff1681526020016001820154815260200160028201805461073890611f64565b80601f016020809104026020016040519081016040528092919081815260200182805461076490611f64565b80156107b15780601f10610786576101008083540402835291602001916107b1565b820191906000526020600020905b81548152906001019060200180831161079457829003601f168201915b50505050508152602001600382015481525050815260200190600101906106a5565b50505050905090565b60008054906101000a900473ffffffffffffffffffffffffffffffffffffffff1673ffffffffffffffffffffffffffffffffffffffff163373ffffffffffffffffffffffffffffffffffffffff161461086a576040517f08c379a000000000000000000000000000000000000000000000000000000000815260040161086190612007565b60405180910390fd5b80600260008473ffffffffffffffffffffffffffffffffffffffff1673ffffffffffffffffffffffffffffffffffffffff16815260200190815260200160002060008282546108b99190611f01565b92505081905550600460405180606001604052808473ffffffffffffffffffffffffffffffffffffffff16815260200183815260200142815250908060018154018082558091505060019003906000526020600020906003020160009091909190915060008201518160000160006101000a81548173ffffffffffffffffffffffffffffffffffffffff021916908373ffffffffffffffffffffffffffffffffffffffff160217905550602082015181600101556040820151816002015550508173ffffffffffffffffffffffffffffffffffffffff167f53118bff2fb56701752f5bf54053d24fb83cec92f9f6ce664b90c38a2991caa482426040516109c1929190611937565b60405180910390a25050565b60016020528060005260406000206000915090505481565b600581815481106109f557600080fd5b90600052602060002090600402016000915090508060000160009054906101000a900473ffffffffffffffffffffffffffffffffffffffff1690806001015490806002018054610a4490611f64565b80601f0160208091040260200160405190810160405280929190818152602001828054610a7090611f64565b8015610abd5780601f10610a9257610100808354040283529160200191610abd565b820191906000526020600020905b815481529060010190602001808311610aa057829003601f168201915b5050505050908060030154905084565b60008054906101000a900473ffffffffffffffffffffffffffffffffffffffff1673ffffffffffffffffffffffffffffffffffffffff163373ffffffffffffffffffffffffffffffffffffffff1614610b5b576040517f08c379a0000000000000000000000000000000000000000000000000000000008152600401610b5290612007565b60405180910390fd5b81600260008573ffffffffffffffffffffffffffffffffffffffff1673ffffffffffffffffffffffffffffffffffffffff168152602001908152602001600020541015610bdd576040517f08c379a0000000000000000000000000000000000000000000000000000000008152600401610bd490612099565b60405180910390fd5b81600260008573ffffffffffffffffffffffffffffffffffffffff1673ffffffffffffffffffffffffffffffffffffffff1681526020019081526020016000206000828254610c2c91906120b9565b92505081905550600560405180608001604052808573ffffffffffffffffffffffffffffffffffffffff16815260200184815260200183815260200142815250908060018154018082558091505060019003906000526020600020906004020160009091909190915060008201518160000160006101000a81548173ffffffffffffffffffffffffffffffffffffffff021916908373ffffffffffffffffffffffffffffffffffffffff160217905550602082015181600101556040820151816002019081610cfb9190612299565b506060820151816003015550508273ffffffffffffffffffffffffffffffffffffffff167f871fc9e506c88f6c639070a13f27630f3b9728809ebada4ce86129e68a2ce8e4838342604051610d529392919061236b565b60405180910390a2505050565b60008054906101000a900473ffffffffffffffffffffffffffffffffffffffff1673ffffffffffffffffffffffffffffffffffffffff163373ffffffffffffffffffffffffffffffffffffffff1614610ded576040517f08c379a0000000000000000000000000000000000000000000000000000000008152600401610de490612007565b60405180910390fd5b60008054906101000a900473ffffffffffffffffffffffffffffffffffffffff1673ffffffffffffffffffffffffffffffffffffffff166108fc479081150290604051600060405180830381858888f19350505050158015610e53573d6000803e3d6000fd5b50565b60606000805b600580549050811015610efd578373ffffffffffffffffffffffffffffffffffffffff1660058281548110610e9457610e936123a9565b5b906000526020600020906004020160000160009054906101000a900473ffffffffffffffffffffffffffffffffffffffff1673ffffffffffffffffffffffffffffffffffffffff1603610ef0578180610eec906123d8565b9250505b8080600101915050610e5c565b5060008167ffffffffffffffff811115610f1a57610f19611c44565b5b604051908082528060200260200182016040528015610f5357816020015b610f406117cd565b815260200190600190039081610f385790505b5090506000805b600580549050811015611142578573ffffffffffffffffffffffffffffffffffffffff1660058281548110610f9257610f916123a9565b5b906000526020600020906004020160000160009054906101000a900473ffffffffffffffffffffffffffffffffffffffff1673ffffffffffffffffffffffffffffffffffffffff16036111355760058181548110610ff357610ff26123a9565b5b90600052602060002090600402016040518060800160405290816000820160009054906101000a900473ffffffffffffffffffffffffffffffffffffffff1673ffffffffffffffffffffffffffffffffffffffff1673ffffffffffffffffffffffffffffffffffffffff1681526020016001820154815260200160028201805461107c90611f64565b80601f01602080910402602001604051908101604052809291908181526020018280546110a890611f64565b80156110f55780601f106110ca576101008083540402835291602001916110f5565b820191906000526020600020905b8154815290600101906020018083116110d857829003601f168201915b5050505050815260200160038201548152505083838151811061111b5761111a6123a9565b5b60200260200101819052508180611131906123d8565b9250505b8080600101915050610f5a565b50819350505050919050565b60008054906101000a900473ffffffffffffffffffffffffffffffffffffffff1673ffffffffffffffffffffffffffffffffffffffff163373ffffffffffffffffffffffffffffffffffffffff16146111dc576040517f08c379a00000000000000000000000000000000000000000000000000000000081526004016111d390612007565b60405180910390fd5b6000600660008373ffffffffffffffffffffffffffffffffffffffff1673ffffffffffffffffffffffffffffffffffffffff16815260200190815260200160002060006101000a81548160ff02191690831515021790555050565b60008054906101000a900473ffffffffffffffffffffffffffffffffffffffff1681565b6003818154811061126b57600080fd5b90600052602060002090600402016000915090508060000160009054906101000a900473ffffffffffffffffffffffffffffffffffffffff16908060010154908060020180546112ba90611f64565b80601f01602080910402602001604051908101604052809291908181526020018280546112e690611f64565b80156113335780601f1061130857610100808354040283529160200191611333565b820191906000526020600020905b81548152906001019060200180831161131657829003601f168201915b5050505050908060030154905084565b60066020528060005260406000206000915054906101000a900460ff1681565b60076020528060005260406000206000915090505481565b6004818154811061138b57600080fd5b90600052602060002090600302016000915090508060000160009054906101000a900473ffffffffffffffffffffffffffffffffffffffff16908060010154908060020154905083565b60008054906101000a900473ffffffffffffffffffffffffffffffffffffffff1673ffffffffffffffffffffffffffffffffffffffff163373ffffffffffffffffffffffffffffffffffffffff1614611463576040517f08c379a000000000000000000000000000000000000000000000000000000000815260040161145a90612007565b60405180910390fd5b6001600660008373ffffffffffffffffffffffffffffffffffffffff1673ffffffffffffffffffffffffffffffffffffffff16815260200190815260200160002060006101000a81548160ff02191690831515021790555050565b60008054906101000a900473ffffffffffffffffffffffffffffffffffffffff1673ffffffffffffffffffffffffffffffffffffffff163373ffffffffffffffffffffffffffffffffffffffff161461154c576040517f08c379a000000000000000000000000000000000000000000000000000000000815260040161154390612007565b60405180910390fd5b600360405180608001604052808573ffffffffffffffffffffffffffffffffffffffff16815260200184815260200183815260200142815250908060018154018082558091505060019003906000526020600020906004020160009091909190915060008201518160000160006101000a81548173ffffffffffffffffffffffffffffffffffffffff021916908373ffffffffffffffffffffffffffffffffffffffff1602179055506020820151816001015560408201518160020190816116149190612299565b5060608201518160030155505060405160200161163090612477565b604051602081830303815290604052805190602001208160405160200161165791906124bd565b60405160208183030381529060405280519060200120036116cd5781600160008573ffffffffffffffffffffffffffffffffffffffff1673ffffffffffffffffffffffffffffffffffffffff16815260200190815260200160002060008282546116c19190611f01565b92505081905550611776565b6040516020016116dc90612520565b604051602081830303815290604052805190602001208160405160200161170391906124bd565b60405160208183030381529060405280519060200120036117755781600260008573ffffffffffffffffffffffffffffffffffffffff1673ffffffffffffffffffffffffffffffffffffffff168152602001908152602001600020600082825461176d9190611f01565b925050819055505b5b8273ffffffffffffffffffffffffffffffffffffffff167f2f5785d4be239c8c480a14e80a91baa2541b34a57d4fe18d963997e5455266d58383426040516117c09392919061236b565b60405180910390a2505050565b6040518060800160405280600073ffffffffffffffffffffffffffffffffffffffff1681526020016000815260200160608152602001600081525090565b6000604051905090565b600080fd5b600080fd5b6000819050919050565b6118328161181f565b811461183d57600080fd5b50565b60008135905061184f81611829565b92915050565b60006020828403121561186b5761186a611815565b5b600061187984828501611840565b91505092915050565b600073ffffffffffffffffffffffffffffffffffffffff82169050919050565b60006118ad82611882565b9050919050565b6118bd816118a2565b81146118c857600080fd5b50565b6000813590506118da816118b4565b92915050565b6000602082840312156118f6576118f5611815565b5b6000611904848285016118cb565b91505092915050565b6119168161181f565b82525050565b6000602082019050611931600083018461190d565b92915050565b600060408201905061194c600083018561190d565b611959602083018461190d565b9392505050565b600081519050919050565b600082825260208201905092915050565b6000819050602082019050919050565b611995816118a2565b82525050565b6119a48161181f565b82525050565b600081519050919050565b600082825260208201905092915050565b60005b838110156119e45780820151818401526020810190506119c9565b60008484015250505050565b6000601f19601f8301169050919050565b6000611a0c826119aa565b611a1681856119b5565b9350611a268185602086016119c6565b611a2f816119f0565b840191505092915050565b6000608083016000830151611a52600086018261198c565b506020830151611a65602086018261199b565b5060408301518482036040860152611a7d8282611a01565b9150506060830151611a92606086018261199b565b508091505092915050565b6000611aa98383611a3a565b905092915050565b6000602082019050919050565b6000611ac982611960565b611ad3818561196b565b935083602082028501611ae58561197c565b8060005b85811015611b215784840389528151611b028582611a9d565b9450611b0d83611ab1565b925060208a01995050600181019050611ae9565b50829750879550505050505092915050565b60006020820190508181036000830152611b4d8184611abe565b905092915050565b60008060408385031215611b6c57611b6b611815565b5b6000611b7a858286016118cb565b9250506020611b8b85828601611840565b9150509250929050565b611b9e816118a2565b82525050565b600082825260208201905092915050565b6000611bc0826119aa565b611bca8185611ba4565b9350611bda8185602086016119c6565b611be3816119f0565b840191505092915050565b6000608082019050611c036000830187611b95565b611c10602083018661190d565b8181036040830152611c228185611bb5565b9050611c31606083018461190d565b95945050505050565b600080fd5b600080fd5b7f4e487b7100000000000000000000000000000000000000000000000000000000600052604160045260246000fd5b611c7c826119f0565b810181811067ffffffffffffffff82111715611c9b57611c9a611c44565b5b80604052505050565b6000611cae61180b565b9050611cba8282611c73565b919050565b600067ffffffffffffffff821115611cda57611cd9611c44565b5b611ce3826119f0565b9050602081019050919050565b82818337600083830152505050565b6000611d12611d0d84611cbf565b611ca4565b905082815260208101848484011115611d2e57611d2d611c3f565b5b611d39848285611cf0565b509392505050565b600082601f830112611d5657611d55611c3a565b5b8135611d66848260208601611cff565b91505092915050565b600080600060608486031215611d8857611d87611815565b5b6000611d96868287016118cb565b9350506020611da786828701611840565b925050604084013567ffffffffffffffff811115611dc857611dc761181a565b5b611dd486828701611d41565b9150509250925092565b6000602082019050611df36000830184611b95565b92915050565b60008115159050919050565b611e0e81611df9565b82525050565b6000602082019050611e296000830184611e05565b92915050565b6000606082019050611e446000830186611b95565b611e51602083018561190d565b611e5e604083018461190d565b949350505050565b7f4e6f207469656e6573207065726d69736f207061726120766f7461722e000000600082015250565b6000611e9c601d83611ba4565b9150611ea782611e66565b602082019050919050565b60006020820190508181036000830152611ecb81611e8f565b9050919050565b7f4e487b7100000000000000000000000000000000000000000000000000000000600052601160045260246000fd5b6000611f0c8261181f565b9150611f178361181f565b9250828201905080821115611f2f57611f2e611ed2565b5b92915050565b7f4e487b7100000000000000000000000000000000000000000000000000000000600052602260045260246000fd5b60006002820490506001821680611f7c57607f821691505b602082108103611f8f57611f8e611f35565b5b50919050565b7f536f6c6f20656c2070726f706965746172696f20707565646520656a6563757460008201527f617220657374612066756e63696f6e2e00000000000000000000000000000000602082015250565b6000611ff1603083611ba4565b9150611ffc82611f95565b604082019050919050565b6000602082019050818103600083015261202081611fe4565b9050919050565b7f53616c646f20696e737566696369656e7465206465204743542070617261206360008201527f616d626961722e00000000000000000000000000000000000000000000000000602082015250565b6000612083602783611ba4565b915061208e82612027565b604082019050919050565b600060208201905081810360008301526120b281612076565b9050919050565b60006120c48261181f565b91506120cf8361181f565b92508282039050818111156120e7576120e6611ed2565b5b92915050565b60008190508160005260206000209050919050565b60006020601f8301049050919050565b600082821b905092915050565b60006008830261214f7fffffffffffffffffffffffffffffffffffffffffffffffffffffffffffffffff82612112565b6121598683612112565b95508019841693508086168417925050509392505050565b6000819050919050565b600061219661219161218c8461181f565b612171565b61181f565b9050919050565b6000819050919050565b6121b08361217b565b6121c46121bc8261219d565b84845461211f565b825550505050565b600090565b6121d96121cc565b6121e48184846121a7565b505050565b5b81811015612208576121fd6000826121d1565b6001810190506121ea565b5050565b601f82111561224d5761221e816120ed565b61222784612102565b81016020851015612236578190505b61224a61224285612102565b8301826121e9565b50505b505050565b600082821c905092915050565b600061227060001984600802612252565b1980831691505092915050565b6000612289838361225f565b9150826002028217905092915050565b6122a2826119aa565b67ffffffffffffffff8111156122bb576122ba611c44565b5b6122c58254611f64565b6122d082828561220c565b600060209050601f83116001811461230357600084156122f1578287015190505b6122fb858261227d565b865550612363565b601f198416612311866120ed565b60005b8281101561233957848901518255600182019150602085019450602081019050612314565b868310156123565784890151612352601f89168261225f565b8355505b6001600288020188555050505b505050505050565b6000606082019050612380600083018661190d565b81810360208301526123928185611bb5565b90506123a1604083018461190d565b949350505050565b7f4e487b7100000000000000000000000000000000000000000000000000000000600052603260045260246000fd5b60006123e38261181f565b91507fffffffffffffffffffffffffffffffffffffffffffffffffffffffffffffffff820361241557612414611ed2565b5b600182019050919050565b600081905092915050565b7f4557430000000000000000000000000000000000000000000000000000000000600082015250565b6000612461600383612420565b915061246c8261242b565b600382019050919050565b600061248282612454565b9150819050919050565b6000612497826119aa565b6124a18185612420565b93506124b18185602086016119c6565b80840191505092915050565b60006124c9828461248c565b915081905092915050565b7f4743540000000000000000000000000000000000000000000000000000000000600082015250565b600061250a600383612420565b9150612515826124d4565b600382019050919050565b600061252b826124fd565b915081905091905056fea26469706673582212202799c3a020bf26b0ef4f97252cbdd43eaaa15535f245dfc03b6e23af5b016b8964736f6c63430008180033",
  "linkReferences": {},
  "deployedLinkReferences": {}
}